:100000004DC05FC05EC05DC05CC05BC05AC059C01F
:1000100058C057C056C055C054C053C052C051C03C
:1000200050C04FC04EC069C081C380C37FC37EC370
:100030007DC37CC37BC37AC379C378C36EC076C3E8
:100040007FC074C373C34EC39BC2AEC2C1C2D4C20D
:10005000E7C2FAC20DC31FC331C352C067C366C330
:1000600054C364C363C362C37AC08DC0A1C0B4C0AB
:10007000C8C0DBC0EEC003C115C127C13BC150C120
:1000800062C175C189C19CC1B0C1C4C1D9C1ECC133
:10009000FEC110C223C236C249C25CC211241FBEB7
:1000A000CFE5D4E0DEBFCDBF10E0A0E6B0E0E6E9EA
:1000B000FBE002C005900D92AE36B107D9F791D39F
:1000C00068C59ECF009741F020E030E000002F5F30
:1000D0003F4F28173907D1F708950F931F93CF93F8
:1000E000DF93EB01482F50E0FA01B097EB33F105B5
:1000F00008F01CC3ED5EFF4F0994CE01E3DF16C389
:1001000018BACE01DFDF98B386E6892788BBCE0117
:10011000D9DF18BACE01D6DF09C310E118BBCE0172
:10012000D1DF18BBCE01CEDF8CE788BBCE01CADFA2
:1001300018BBCE01C7DF18BBCE01C4DF18BAF6C2A8
:1001400010E118BBCE01BEDF18BBCE01BBDF18BB70
:10015000CE01B8DF18BBCE01B5DF18BAE7C21FE386
:1001600018BBCE01AFDF08E408BBCE01ABDF88E8E7
:1001700088BBCE01A7DF08BBCE01A4DF18BBCE0130
:10018000A1DF18BAD3C28FEF88BBCE019BDF11E984
:1001900018BBCE0197DF18BBCE0194DF8AEA88BB7B
:1001A000CE0190DF84E488BBCE018CDF18BABEC2DA
:1001B0008CE388BBCE0186DF82E488BBCE0182DF80
:1001C00011E818BBCE017EDF18BBCE017BDF18BB68
:1001D000CE0178DF18BAAAC28FEF88BBCE0172DFDA
:1001E00011E818BBCE016EDF18BBCE016BDF82E4D5
:1001F00088BBCE0167DF8CE388BBCE0163DF18BA12
:1002000095C28FEF88BBCE015DDF11E918BBCE012F
:1002100059DF18BBCE0156DF18BBCE0153DF81E892
:1002200088BBCE014FDF18BA81C28FEF88BBCE01E9
:1002300049DF10E918BBCE0145DF18BBCE0142DF14
:1002400018BBCE013FDF80E888BBCE013BDF18BA88
:100250006DC28FEF88BBCE0135DF81E888BBCE0150
:1002600031DF8DE988BBCE012DDF81E988BBCE016E
:1002700029DF8FE988BBCE0125DF18BA57C20FEFFF
:1002800008BBCE011FDF10E118BBCE011BDF18BB7E
:10029000CE0118DF18BBCE0115DF08BBCE0112DF7F
:1002A00018BA44C211E818BBCE010CDF18BBCE014E
:1002B00009DF8FEF88BBCE0105DF18BBCE0102DF5F
:1002C00018BBCE01FFDE18BA31C287E888BBCE0169
:1002D000F9DE81E888BBCE01F5DE8FEF88BBCE0169
:1002E000F1DE19E818BBCE01EDDE18BBCE01EADE67
:1002F00018BA1CC28FEF88BBCE01E4DE88E188BB50
:10030000CE01E0DE84E288BBCE01DCDE82E488BB85
:10031000CE01D8DE81E888BBCE01D4DE18BA06C291
:100320008FEF88BBCE01CEDE11E018BBCE01CADE56
:1003300018BBCE01C7DE18BBCE01C4DE18BBCE0190
:10034000C1DE18BAF3C11FEF18BBCE01BBDE00E45B
:1003500008BBCE01B7DE80E388BBCE01B3DE08BBAD
:10036000CE01B0DE18BBCE01ADDE18BADFC11FEF83
:1003700018BBCE01A7DE80E688BBCE01A3DE88E1F4
:1003800088BBCE019FDE86E088BBCE019BDE18BB1A
:10039000CE0198DE18BACAC11CE318BBCE0192DEAA
:1003A00002E408BBCE018EDE81E888BBCE018ADE86
:1003B00008BBCE0187DE18BBCE0184DE18BAB6C1F9
:1003C0008FEF88BBCE017EDE18E818BBCE017ADE47
:1003D00018BBCE0177DE80E588BBCE0173DE80E2FC
:1003E00088BBCE016FDE18BAA1C18CE388BBCE01F9
:1003F00069DE12E418BBCE0165DE85E888BBCE015C
:1004000061DE18BBCE015EDE8DE388BBCE015ADE15
:1004100018BA8CC18FEF88BBCE0154DE88E888BB48
:10042000CE0150DE8CE888BBCE014CDE82E588BB75
:10043000CE0148DE81E288BBCE0144DE18BA76C127
:1004400082E788BBCE013EDE19E818BBCE013ADE5A
:1004500018BBCE0137DE18BBCE0134DE86E488BB84
:10046000CE0130DE18BA62C110E818BBCE012ADE18
:1004700018BBCE0127DE8FEF88BBCE0123DE18BB71
:10048000CE0120DE18BBCE011DDE18BA4FC10FEF22
:1004900008BBCE0117DE11E018BBCE0113DE18BB7E
:1004A000CE0110DE18BBCE010DDE08BBCE010ADE88
:1004B00018BA3CC118EF18BBCE0104DE06E008BB39
:1004C000CE0100DE81E088BBCE01FCDD08BBCE01A1
:1004D000F9DD18BBCE01F6DD18BA28C11FEF18BB35
:1004E000CE01F0DD02E008BBCE01ECDD8CE088BB84
:1004F000CE01E8DD08BBCE01E5DD18BBCE01E2DDB3
:1005000018BA14C111EC18BBCE01DCDD06E308BB40
:10051000CE01D8DD88E088BBCE01D4DD08BBCE019A
:10052000D1DD18BBCE01CEDD18BA00C110EC18BB6E
:10053000CE01C8DD00E308BBCE01C4DD8FE088BB7F
:10054000CE01C0DD08BBCE01BDDD18BBCE01BADDDA
:1005500018BAECC083E888BBCE01B4DD85E888BB5F
:10056000CE01B0DD89E888BBCE01ACDD81EB88BB74
:10057000CE01A8DD81EC88BBCE01A4DD18BAD6C0BF
:1005800011E018BBCE019EDD81E488BBCE019ADD6F
:100590008FEF88BBCE0196DD18BBCE0193DD18BB73
:1005A000CE0190DD18BAC2C08FEC88BBCE018ADDC7
:1005B00019E818BBCE0186DD18BBCE0183DD18BB60
:1005C000CE0180DD89EF88BBCE017CDD18BAAEC0DC
:1005D00081E888BBCE0176DD11E918BBCE0172DD62
:1005E00018BBCE016FDD18BBCE016CDD8FEF88BB71
:1005F000CE0168DD18BA9AC080EF88BBCE0162DDFB
:1006000010E118BBCE015EDD18BBCE015BDD18BB6F
:10061000CE0158DD8FEF88BBCE0154DD18BA86C0FD
:1006200081EF88BBCE014EDD11E918BBCE014ADD5A
:1006300018BBCE0147DD18BBCE0144DD8FE988BB76
:10064000CE0140DD18BA72C08FEF88BBCE013ADD13
:1006500011E918BBCE0136DD18BBCE0133DD18BB66
:10066000CE0130DD8FE988BBCE012CDD18BA5EC02B
:1006700010E818BBCE0126DD18BBCE0123DD18BB68
:10068000CE0120DD18BBCE011DDD8FEF88BBCE0172
:1006900019DD18BA4BC00FEF08BBCE0113DD11E90D
:1006A00018BBCE010FDD18BBCE010CDD18BBCE018F
:1006B00009DD08BBCE0106DD18BA38C089EF88BB5A
:1006C000CE0100DD19E818BBCE01FCDC18BBCE0161
:1006D000F9DC18BBCE01F6DC8FEF88BBCE01F2DC73
:1006E00018BA24C00FEF08BBCE01ECDC11E818BB30
:1006F000CE01E8DC18BBCE01E5DC18BBCE01E2DCA4
:1007000008BBCE01DFDC18BA11C018E218BBCE015D
:10071000D9DC18BBCE01D6DC18BBCE01D3DC18BBAC
:10072000CE01D0DC18BBCE01CDDC18BADF91CF9161
:100730001F910F910895CF92DF92EF92FF920F9346
:100740001F93CF93DF938B01FC0101900020E9F709
:1007500031976F01C81AD90A1C141D0474F47C0166
:10076000C0E0D0E0B801F70181917F01B6DCC8019B
:10077000A9DC2196CC16DD06A9F7DF91CF911F9158
:100780000F91FF90EF90DF90CF9008958299FECF68
:10079000829907C080E090E000000196829BFCCF28
:1007A000089580E090E00895FC0124EF31E040E0FE
:1007B00050E081919191480F591F21503109211525
:1007C0003105B9F79A013695279536952795A5EC09
:1007D000B0E2D3D1929582958F7089279F70892737
:1007E0000895CF93DF93CDB7DEB7C55FD3400FB683
:1007F000F894DEBF0FBECDBF80EA81BF8DE0E0E69A
:10080000F0E0DE01A751BC4F01900D928A95E1F70F
:1008100011BA8FEF87BB18BA12BA2FE38DE093E0BD
:10082000215080409040E1F700C000008E010F5F32
:100830001F4F7E01E7E1EE1AECEFFE0A0F2EFAEFF2
:10084000DF2EF02DA3DFD89E9001D99E300D11240C
:10085000A3E8BDE292D10024880F991F001C880FE5
:10086000991F001C892F902DF801819391938F017E
:10087000EE15FF0539F7CE01019696DF8C019C83BA
:100880008B830F2EF4EFAF2EBB24B394F02D0F2EDD
:10089000FAEF7F2EF02D01C084018299FECFB801BE
:1008A000CE0187519C4F47DF71DF789E9001799E82
:1008B000300D1124A3E8BDE260D10024880F991FF8
:1008C000001C880F991F001C892F902D9A83898303
:1008D0000A9D90010B9D300D1A9D300D1124820F41
:1008E000931FFFEFAF1ABF0AB50133D14B010B8144
:1008F0001C8180E090E018D06B017C01B80180E0A1
:1009000090E012D026E636E646E65FE36ED09B0125
:10091000AC01C701B60104D088230CF4BECFBCCF14
:1009200040D008F481E00895E89409C097FB3EF4B4
:1009300090958095709561957F4F8F4F9F4F99232C
:10094000A9F0F92F96E9BB279395F69587957795AA
:100950006795B795F111F8CFFAF4BB0F11F460FF6A
:100960001BC06F5F7F4F8F4F9F4F16C0882311F0C2
:1009700096E911C0772321F09EE8872F762F05C0D6
:10098000662371F096E8862F70E060E02AF09A9571
:10099000660F771F881FDAF7880F9695879597F966
:1009A0000895990F0008550FAA0BE0E8FEEF161600
:1009B0001706E807F907C0F012161306E407F50753
:1009C00098F0621B730B840B950B39F40A2661F0C7
:1009D000232B242B252B21F408950A2609F4A1406A
:1009E000A6958FEF811D811D08950BD078C069D029
:1009F00028F06ED018F0952309F05AC05FC011247A
:100A0000A2C07ED0A0F3959FD1F3950F50E0551F63
:100A1000629FF001729FBB27F00DB11D639FAA2753
:100A2000F00DB11DAA1F649F6627B00DA11D661FA2
:100A3000829F2227B00DA11D621F739FB00DA11DC3
:100A4000621F839FA00D611D221F749F3327A00D7D
:100A5000611D231F849F600D211D822F762F6A2F19
:100A600011249F5750408AF0E1F088234AF0EE0F9E
:100A7000FF1FBB1F661F771F881F91505040A9F7AB
:100A80009E3F510570F014C05EC05F3FECF3983E8E
:100A9000DCF3869577956795B795F795E7959F5F12
:100AA000C1F7FE2B880F911D9695879597F90895AC
:100AB00097F99F6780E870E060E008959FEF80EC11
:100AC000089500240A9416161706180609060895B4
:100AD00000240A9412161306140605060895092E1A
:100AE0000394000C11F4882352F0BB0F40F4BF2B89
:100AF00011F460FF04C06F5F7F4F8F4F9F4F0895C9
:100B000057FD9058440F551F59F05F3F71F04795BE
:100B1000880F97FB991F61F09F3F79F087950895A3
:100B2000121613061406551FF2CF4695F1DF08C0C2
:100B3000161617061806991FF1CF869571056105DF
:100B400008940895E894BB2766277727CB0197F987
:100B50000895AA1BBB1B51E107C0AA1FBB1FA61704
:100B6000B70710F0A61BB70B881F991F5A95A9F756
:100B700080959095BC01CD010895A29FB001B39FCF
:100B8000C001A39F01D0B29F700D811D1124911D42
:060B90000895F894FFCF68
:0E0B9600474F50414C20424841474154000017
:00000001FF
